:100000000C942A000C9434000C9434000C943400AA
:100010000C9434000C9434000C9434000C94340090
:100020000C9434000C9434000C9434000C94340080
:100030000C9434000C9434000C9434000C94340070
:100040000C9434000C9434000C9434000C94340060
:100050000C94340011241FBECFE5D8E0DEBFCDBF25
:100060000E94DB000C9438010C9400008130F9F000
:1000700030F08230A1F1833009F449C00895413055
:1000800021F040F0423051F008958AB36095682322
:100090006ABB08958AB3682B6ABB08958AB3962F0A
:1000A000909589238ABB8BB3682B6BBB0895413035
:1000B00021F040F0423051F0089587B360956823F5
:1000C00067BB089587B3682B67BB089587B3962FE6
:1000D0009095892387BB88B3682B68BB089541300E
:1000E00021F040F0423051F0089584B360956823C8
:1000F00064BB089584B3682B64BB089584B3962FC2
:100100009095892384BB85B3682B65BB08954130E6
:1001100021F040F0423051F0089581B3609568239A
:1001200061BB089581B3682B61BB089581B3962F9D
:100130009095892381BB82B3682B62BB089581307F
:1001400099F028F08230E9F0833041F10895413090
:1001500021F48BB3682B6BBB089541112BC08BB37B
:10016000609568236BBB0895413021F488B3682BF8
:1001700068BB089541111EC088B36095682368BBB1
:100180000895413021F485B3682B65BB0895411172
:1001900011C085B36095682365BB0895413021F493
:1001A00082B3682B62BB0895411104C082B360958D
:1001B000682362BB0895CF93DF931F92CDB7DEB75C
:1001C00041E060E181E00E94360041E060E281E0D0
:1001D0000E94360040E060E481E00E94360041E089
:1001E00060E881E00E94360040E068E083E00E9421
:1001F000360040E064E082E00E94360025E040E006
:1002000060E080E00E941B01BE016F5F7F4F80E0D5
:100210000E9431018981813631F441E068E083E058
:100220000E949F00F1CF823679F741E064E082E0DE
:100230000E949F00E9CF1DB820FD04C09EB19160CF
:100240009EB903C09EB19E7F9EB950E0440F551FDA
:10025000440F551F682B462B2695242B20642DB95F
:100260000895779B04C09FB1FB0190838FB90895D7
:04027000F894FFCF30
:00000001FF
