:100000000C942A000C9434000C9434000C943400AA
:100010000C9434000C9434000C9434000C94340090
:100020000C9434000C9434000C9434000C94340080
:100030000C9434000C9434000C9434000C94340070
:100040000C9434000C9434000C9434000C94340060
:100050000C94340011241FBECFE5D8E0DEBFCDBF25
:100060000E94D7000C94EC000C9400008130F1F059
:1000700030F0823091F1833009F446C00895413068
:1000800069F040F0423091F48AB3962F909589231D
:100090008ABB0CC08AB3862B8ABB08C08AB3962F52
:1000A000909589238ABB8BB3862B8BBB413069F03B
:1000B00040F0423091F487B3962F9095892387BB07
:1000C0000CC087B3862B87BB08C087B3962F90954B
:1000D000892387BB88B3862B88BB413069F040F009
:1000E000423091F484B3962F9095892384BB0CC041
:1000F00084B3862B84BB08C084B3962F9095892344
:1001000084BB85B3862B85BB413061F038F042302B
:1001100089F481B36095682361BB089581B3682B2E
:1001200061BB089581B3962F9095892381BB82B3DB
:10013000682B62BB0895813099F028F08230E9F095
:10014000833041F10895413021F48BB3682B6BBBB0
:10015000089541112BC08BB3609568236BBB089544
:10016000413021F488B3682B68BB089541111EC04B
:1001700088B36095682368BB0895413021F485B346
:10018000682B65BB0895411111C085B36095682344
:1001900065BB0895413021F482B3682B62BB08959A
:1001A000411104C082B36095682362BB089540E0AA
:1001B00061E882E00E94360041E061E882E00E944E
:1001C0009B0040E062E081E00E94360041E062E096
:0C01D00081E00E949B00FFCFF894FFCF5D
:00000001FF
