S01B000066696E616C5F6D5F636F6E74726F6C6C6572312E737265635F
S11300000C942A000C9434000C9434000C943400A6
S11300100C9434000C9434000C9434000C9434008C
S11300200C9434000C9434000C9434000C9434007C
S11300300C9434000C9434000C9434000C9434006C
S11300400C9434000C9434000C9434000C9434005C
S11300500C94340011241FBECFE5D8E0DEBFCDBF21
S11300600E94DB000C9455010C9400008130F9F0DF
S113007030F08230A1F1833009F449C00895413051
S113008021F040F0423051F008958AB3609568231E
S11300906ABB08958AB3682B6ABB08958AB3962F06
S11300A0909589238ABB8BB3682B6BBB0895413031
S11300B021F040F0423051F0089587B360956823F1
S11300C067BB089587B3682B67BB089587B3962FE2
S11300D09095892387BB88B3682B68BB089541300A
S11300E021F040F0423051F0089584B360956823C4
S11300F064BB089584B3682B64BB089584B3962FBE
S11301009095892384BB85B3682B65BB08954130E2
S113011021F040F0423051F0089581B36095682396
S113012061BB089581B3682B61BB089581B3962F99
S11301309095892381BB82B3682B62BB089581307B
S113014099F028F08230E9F0833041F1089541308C
S113015021F48BB3682B6BBB089541112BC08BB377
S1130160609568236BBB0895413021F488B3682BF4
S113017068BB089541111EC088B36095682368BBAD
S11301800895413021F485B3682B65BB089541116E
S113019011C085B36095682365BB0895413021F48F
S11301A082B3682B62BB0895411104C082B3609589
S11301B0682362BB0895CF93DF9300D0CDB7DEB739
S11301C041E061E083E00E94360040E062E083E0C9
S11301D00E94360040E060E181E00E94360040E089
S11301E060E281E00E94360041E060E481E00E9428
S11301F0360040E060E881E00E94360087E690E047
S11302000E94470125E040E060E080E10E94210176
S1130210CE0101960E944F01BE016E5F7F4F89811E
S11302200E94370141E061E080E00E949F002FEFCF
S113023083ED90E3215080409040E1F700C000003E
S1130240E7CF1DB820FD04C09EB191609EB903C0E4
S11302509EB19E7F9EB950E0440F551F440F551F19
S1130260682B462B2695242B20642DB908958FB92D
S113027080E005C08F5F95E09A95F1F700007799CB
S113028002C08233B8F38FB1FB01808308951BB899
S113029028E12AB926E820BD89B990BD08955F9B5D
S11102A003C02CB1FC0120830895F894FFCF15
S9030000FC
